:04330000D5EF19F0FC
:0E3308004582FACF24F0FBCF25F04CEF1AF0EF
:103318004580D8CF32F0E8CF33F0E0CF34F0FACFA1
:1033280035F0FBCF36F0E9CF37F0EACF38F0E1CF10
:1033380039F0E2CF3AF0D9CF3BF0DACF3CF0F3CF17
:103348003DF0F4CF3EF0F6CF3FF0F7CF40F0F8CFA6
:1033580041F0F5CF42F08CEF15F042C0F5FF41C0C7
:10336800F8FF40C0F7FF3FC0F6FF3EC0F4FF3DC086
:10337800F3FF3CC0DAFF3BC0D9FF3AC0E2FF39C0D7
:10338800E1FF38C0EAFF37C0E9FF36C0FBFF35C0B0
:10339800FAFF34C0E0FF33C0E8FF32C0D8FF4590E1
:1033A800100088EF1BF07AC060F0010E0001616F19
:1033B800000179518DEC1AF049EC1CF006EC1BF079
:1033C80060C06CF061C06DF062C06EF063C06FF0F9
:1033D80006EC1BF00001605100016C5D00016151B9
:1033E80000016D590001625100016E5900016351DD
:1033F80000016F59D8B01ED006EC1BF0E80E000192
:10340800602500016C6F030E0001612100016D6FE2
:10341800000E0001622100016E6F000E00016321A1
:1034280000016F6FFF0E0701081BFF0E0701091B44
:1034380049EC1CF043EC1CF0F00E1F6004D0010EA8
:103448003FEC1BF013D0000E3FEC1BF00FD04AEC02
:103458001CF012000FEC1CF0BBD7FBEC1BF0B8D72C
:10346800E7EC1BF0B5D723EC1CF0B2D7A2EC1BF0AD
:10347800010AD8B4EFD7030AD8B4F2D7010AD8B4EE
:10348800F2D7070AD8B4E9D7010AD8B4E0D7A0D749
:10349800E9CF26F0EACF27F0E1CF28F0E2CF29F0F4
:1034A800D9CF2AF0DACF2BF0F3CF2CF0F4CF2DF0D0
:1034B800F6CF2EF0F7CF2FF0F8CF30F0F5CF31F070
:1034C800F2A407D0010E00017527000E762377239A
:1034D800782384EF15F031C0F5FF30C0F8FF2FC016
:1034E800F7FF2EC0F6FF2DC0F4FF2CC0F3FF2BC052
:1034F800DAFF2AC0D9FF29C0E2FF28C0E1FF27C0B0
:10350800EAFF26C0E9FF25C0FBFF24C0FAFF459269
:1035180011000001646F0001645100080001626F2E
:10352800070E00016227010E0001636F0001622B84
:1035380003D00001D89063370001622FFAD7000149
:1035480063510001656F00016105D8A40DD0000129
:103558006051010D000EF324D96E070EF420DA6EC7
:1035680000016551DF12120000016551FF0A0001D8
:10357800626F00016051010D000EF324D96E070E31
:10358800F420DA6E00016251DF161200000E00010D
:10359800656F000E646F0001625100016311D8B4B9
:1035A8002CD0010E0001666F06D00001D89062375A
:1035B80063370001662B000163AFF7D70001D8908D
:1035C80064376537000162510001605D0001635195
:1035D80000016159D8A00AD0000162510001605F62
:1035E800000163510001615B000164810001D89012
:1035F800633362330001662FE1D764C060F065C0B1
:1036080061F0120075C064F076C065F077C066F0AE
:1036180078C067F0030E06D00001D8906733663390
:1036280065336433E82EF8D775C068F076C069F062
:1036380077C06AF078C06BF00001D8906B336A33BA
:103648006933683300016451000168250001606F27
:1036580000016551000169210001616F0001665197
:1036680000016A210001626F0001675100016B21AE
:103678000001636F12000001606F000160510001DA
:10368800D8B40DD0200E07010B6F400E07010C6F48
:1036980007010D69400E07010E6F200E0CD0040EB5
:1036A80007010B6F020E07010C6F07010D69020E6F
:1036B80007010E6F040E07010F6F49EC1CF0120092
:1036C80067C060F068C061F0000E0001636F0A0E09
:1036D800626FCAEC1AF060C067F061C068F00DD084
:1036E8009C0E0001696FD70EE82EFED7692FFCD714
:1036F80000F000016707D8A06807000167510001C2
:103708006811D8B41200ECD78C0EF66E380EF76E2E
:10371800000EF86E0900F5CF79F00900F5CF7AF0C0
:103728000001786B776B766B756B446A436A4590DA
:103738004592000EF86E0001D2EF1BF000C060F059
:10374800000E006E000160A302D0010E12000001FD
:1037580060A902D0040E1200000160A502D0020E7A
:103768001200000160A702D0030E1200000E120022
:10377800000E0001606F0F0E0001606501D012009D
:1037880000016051010D000EF324D96E070EF420DC
:10379800DA6E000EDF6E0001602BEDD7000E00011F
:1037A800686F010E676F64EC1BF047EC1CF048EC87
:1037B8001CF0BCEC1BF049EC1CF006EC1BF0D7EC41
:1037C80019F0D5EF19F000017A51D8B4120037EC8E
:1037D8001CF000017A077AC060F0010E0001616FE9
:1037E800000179518DEC1AF049EC1CF01200070E1B
:1037F80000017961120037EC1CF00001792B7AC0C6
:1038080060F0010E0001616F000179518DEC1AF032
:1038180049EC1CF0120000017951D8B4120037ECC1
:103828001CF0000179077AC060F0010E0001616F99
:10383800000179518DEC1AF049EC1CF01200070ECA
:1038480000017A61120037EC1CF000017A2B7AC073
:1038580060F0010E0001616F000179518DEC1AF0E2
:1038680049EC1CF012007AC060F0000E0001616F94
:10387800000179518DEC1AF049EC1CF012008AEF26
:0E38880015F0120004031200120012001200CC
:020000040020DA
:08000000FFFFFFFFFFFFFFFF00
:020000040030CA
:0E0000002308183CFFD1A0FF00000000000004
:00000001FF
